:020000040800F2
:10000000980800201914000821140008231400087F
:100010002514000827140008291400080000000017
:100020000000000000000000000000002B14000889
:100030002D140008000000002F14000831140008DF
:100040003314000833140008331400083314000874
:100050003314000833140008331400083314000864
:100060003314000833140008331400083314000854
:100070003314000833140008331400083314000844
:100080003314000833140008331400083314000834
:100090003314000833140008331400083314000824
:1000A0003314000833140008331400083314000814
:1000B0003314000833140008331400083314000804
:1000C00033140008331400083314000833140008F4
:1000D00033140008C90E0008170F0008430F00086A
:1000E00033140008331400083314000833140008D4
:1000F00033140008331400083314000833140008C4
:1001000033140008331400083314000833140008B3
:1001100033140008331400083314000833140008A3
:100120003314000833140008331400083314000893
:1001300000F002F800F03AF80AA090E8000C8244BF
:100140008344AAF10107DA4501D100F02FF8AFF29C
:10015000090EBAE80F0013F0010F18BFFB1A43F0A5
:1001600001031847882E0000A82E0000103A24BF73
:1001700078C878C1FAD8520724BF30C830C144BF0C
:1001800004680C607047000000230024002500264E
:10019000103A28BF78C1FBD8520728BF30C148BFEA
:1001A0000B6070471FB51FBD10B510BD02F051FCAC
:1001B0001146FFF7F7FF00F009F802F06FFC03B4F7
:1001C000FFF7F2FF03BC02F073FC000000240025DF
:1001D000642000F07DF800F093F800F0D0F800F013
:1001E00072F900F0A9F900F06CFA00F006FA00F0DC
:1001F0003AFE642000F06CF865E0334800F0ABFB99
:10020000082809D0304800F0A6FB0F2804D02E485B
:1002100000F0A1FB0C2856D12B4800F0AFFB0028C2
:1002200051D0294800F054FC0546274800F013FC43
:100230000446032D3CD1012C06D0022C0FD0032CF8
:100240001AD0042C2ED123E000F019FE082211460A
:100250001E4800F0C8FA0D2000F084FA23E01A4886
:1002600000F03EFC0746184800F036FC86B23946DE
:10027000304600F02BFD16E0134800F081FC0646E6
:10028000114800F079FC0746314600F0CCFF0AE047
:1002900001F09FF80646052100F07AFA0D2000F0E3
:1002A00061FA00E000BF00BF074800F0FFFB0AE072
:1002B000054800F050FB06463146034800F01CFBA1
:1002C000014800F0F3FB98E71802002048000020E6
:1002D000002107E0002200E0521C42F6E0639A424F
:1002E000FADB491C8142F5DB7047002105E0002262
:1002F00000E0521C0A2AFCDB491C8142F7DB7047F4
:1003000010B501F0CDFF4FF4803001F0E9FF02F0AD
:1003100026F80446012C1ED1002002F066F80020C9
:1003200002F075F8A00202F069F84FF4E011200421
:1003300002F03EF8012002F047F800BF392001F03A
:10034000F2FF0028FAD0022002F041F800BF02F0CC
:1003500047F80828FBD101F0EEF8012144F23D20D6
:1003600002F00CF90121F44802F015F94FF4404075
:1003700002F068F80121084602F0F3F810BD08B554
:100380004FF40070ADF8000018208DF80300032032
:100390008DF802006946E94801F034FE4FF48060B0
:1003A000ADF8000004208DF8030003208DF8020052
:1003B0006946E24801F026FE0420ADF8000018204E
:1003C0008DF8030003208DF802006946DB4801F038
:1003D00019FE0820ADF8000004208DF8030003206A
:1003E0008DF802006946D54801F00CFE4FF480609C
:1003F000ADF8000018208DF8030003208DF80200EE
:100400006946CF4801F0FEFD4FF40060ADF80000F2
:1004100004208DF8030003208DF802006946C848C7
:1004200001F0F0FDF320ADF8000000208DF803008E
:1004300003208DF802006946C04801F0E3FD032067
:10044000ADF8000000208DF8030003208DF80200B5
:100450006946BB4801F0D6FD0420ADF800008DF8D8
:10046000030003208DF802006946B64801F0CAFD7A
:1004700041F6FF70ADF8000010208DF80300032056
:100480008DF802006946B04801F0BCFD4FF4004011
:10049000ADF8000010208DF8030003208DF8020055
:1004A0006946A74801F0AEFD47F2E000ADF8000054
:1004B00010208DF8030003208DF802006946A04843
:1004C00001F0A0FD08BD08B54FF4C06001F0B4F81C
:1004D00026208DF8000000208DF8010001208DF805
:1004E00002008DF80300684601F0ABF84FF4C060DD
:1004F00001F0A2F827208DF8000000208DF80100FF
:1005000002208DF8020001208DF80300684601F0FA
:1005100098F84FF4C06001F08FF825208DF80000A6
:1005200000208DF801008DF8020001208DF80300F5
:10053000684601F086F808BD00B587B04FF4165044
:1005400003900020ADF81000ADF81200ADF81400D3
:10055000ADF818000C20ADF816000020ADF804002E
:10056000ADF806004FF40070ADF808000020ADF8BB
:100570000A0001A9754802F01DF903A9734802F0A9
:10058000A4F8012240F22551704802F036F94021CA
:100590006E4802F00EFA01216C4802F022F901A91E
:1005A0006B4802F007F903A9694802F08EF80122AE
:1005B00040F22551664802F020F94021644802F0DB
:1005C000F8F90121624802F00CF901A9614802F032
:1005D000F1F803A95F4802F078F8012240F22551B2
:1005E0005C4802F00AF940215A4802F0E2F9012180
:1005F000584802F0F6F807B000BD00B585B056487F
:1006000001F088F80020009001208DF804008DF89A
:1006100005004FF4602002900020039008208DF820
:10062000100069464C4801F09CF807230122002184
:10063000494801F02EF9072302220121464801F022
:1006400028F9072303220421434801F022F9072354
:1006500004220521404801F01CF907230522062148
:100660003D4801F016F90723062219463A4801F0E1
:1006700010F907231A460821374801F00AF9072321
:1006800008220921344801F004F90121324801F01F
:100690009FF80121304801F090F82F4801F0AFF8A1
:1006A00000BF2D4801F0B0F80028FAD12A4801F027
:1006B000B5F800BF284801F0B6F80028FAD105B017
:1006C00000BD00B58BB0254801F012FB22484C302C
:1006D00000902348019000200290502003900020B9
:1006E0000490802005904000069080000790202014
:1006F00008900002099000200A906946174801F00E
:1007000099FB0121154801F0C0FB0BB000BD1FB5DE
:100710000020009001900290022003906946002082
:1007200001F02BFA0121002001F044FA00210846D3
:1007300001F0A1FA1FBD00000000062000080140E2
:10074000000C01400014014000100140003801403D
:1007500000440040004800400024014008000240DE
:100760008800002010B504464021FE4802F014F92C
:100770002146FC4802F0A2F800BF4021F94802F0EF
:100780000BF90028F9D04021F64802F012F910BD0B
:1007900070B505460E46002400BF13E04021F14825
:1007A00002F0FAF8295DEF4802F088F800BF402116
:1007B000EC4802F0F1F80028F9D04021E94802F0B5
:1007C000F8F8641CB442E9DB70BD10B5E54802F0EE
:1007D00079F8C4B200BF2021E24802F0DDF8002819
:1007E000F9D1204610BD2DE9F04105460E461746C9
:1007F000002400BF05E005EBC4003946FFF7C8FF41
:10080000641CB442F7DBBDE8F08110B5044640211A
:10081000D54802F0C1F82146D34802F04FF800BF96
:100820004021D14802F0B8F80028F9D04021CE4844
:1008300002F0BFF810BD70B505460E46002400BF9B
:1008400013E04021C84802F0A7F8295DC64802F02D
:1008500035F800BF4021C44802F09EF80028F9D0C6
:100860004021C14802F0A5F8641CB442E9DB70BD28
:1008700010B5BD4802F026F8C4B200BF2021BA4826
:1008800002F08AF80028F9D1204610BD2DE9F04188
:1008900005460E461746002400BF05E005EBC400E0
:1008A0003946FFF7C8FF641CB442F7DBBDE8F081AE
:1008B00010B5AE4802F006F8C4B200BF2021AB4824
:1008C00002F06AF80028F9D1204610BD10B50446A0
:1008D0004021A64802F060F82146A44801F0EEFF4E
:1008E00000BF4021A14802F057F80028F9D040216C
:1008F0009E4802F05EF810BD70B505460E46002415
:1009000000BF13E04021994802F046F8295D97485E
:1009100001F0D4FF00BF4021944802F03DF80028C8
:10092000F9D04021914802F044F8641CB442E9DB5C
:1009300070BD2DE9F04105460E461746002400BF64
:1009400005E005EBC4003946FFF7D6FF641CB4424E
:10095000F7DBBDE8F08102460021002000BF03E084
:10096000535C03B1401C491C0F29F9DB7047024658
:100970008A4201DD104670470846FCE710B5044680
:100980002078232809D12046FFF7E5FF204410F8FE
:10099000010C252801D1012010BD0020FCE70146F3
:1009A000487849280DD1887844280AD10879232825
:1009B00007D14879412804D18879492801D10120FB
:1009C00070470020FCE701464878492813D1887811
:1009D000442810D1087923280DD1487941280AD11B
:1009E00088794F2807D1C879232804D1487A232849
:1009F00001D1022070470020FCE7014648784928D1
:100A000013D18878442810D1087923280DD148794A
:100A100044280AD188794F2807D1C879232804D1DE
:100A2000487A232801D1032070470020FCE70146C3
:100A3000487849280DD1887844280AD10879232894
:100A400007D14879442804D18879492801D1042064
:100A500070470020FCE700B502460023507941288A
:100A600002D044281ED10EE09079492803D11046C7
:100A7000FFF795FF034690794F2803D11046FFF703
:100A8000D6FF03460FE09079492803D11046FFF7BF
:100A9000CEFF034690794F2803D11046FFF7ADFFF4
:100AA000034600E000BF00BF184600BD014600201D
:100AB00002E000220A54401C0F28FADB704702466D
:100AC000002002E000231354401C8842FADB7047E8
:100AD0000146C878303870470146087A3038704788
:100AE0002DE9F04F85B0824600BF9AF80A003038F1
:100AF00001909AF80C00303802909AF80D003038C6
:100B000003909AF80E00303804904FF47A710198EF
:100B10004843029901EBC10202EB011100EB810095
:100B2000039901EB810100EB410004990844009016
:100B30004FF47A710098B0FBF1FB584602F045F98A
:100B400006464FF066320A4B01F0BAFF0446002217
:100B5000084B02F04DF9804602F00AF980B205B068
:100B6000BDE8F08F003801400044004000480040DC
:100B700066660A400000B0400146087A3038704787
:100B80000146887A542801D1012070470020FCE7F3
:100B900010B504462146002001F06DF810BD70B577
:100BA00005464FF4004680214F4801F0DAFA8021D3
:100BB0004D4801F0D4FA80214B4801F0D2FA0120CF
:100BC000FFF793FB2021484801F0CBFA402146482B
:100BD00001F0C7FA00240BE04021434801F0BFFABE
:100BE0000120FFF782FB40213F4801F0BAFA641C64
:100BF000082CF1DB002418E040213B4801F0AFFA5B
:100C000006EA050020B12021374801F0A8FA03E0E8
:100C10002021354801F0A5FA76104021324801F034
:100C2000A0FA0120FFF761FB641C102CE4DB70BD0F
:100C300070B505468026F1012B4801F092FAF101CA
:100C4000294801F08CFAF101274801F08AFA0120C5
:100C5000FFF74BFB7101254801F083FAB1012248EF
:100C600001F07FFA00240DE04FF400511E4801F01E
:100C700076FA0120FFF739FB4FF400511A4801F0D2
:100C800070FA641C082CEFDB00241CE04FF40051C8
:100C9000154801F064FA06EA050028B14FF48051C6
:100CA000114801F05CFA04E04FF480510F4801F064
:100CB00058FA76104FF400510B4801F052FA012017
:100CC000FFF713FB641C102CE0DB70BD70B504460D
:100CD0000D46012C02D12846FFF761FF022C02D1FC
:100CE0002846FFF7A5FF70BD000C0140001C014025
:100CF00070B50246002317E0002011E032F81050D2
:100D000002EB40067688B54209DD32F8104002EB6E
:100D100040056D8822F8105002EB40056C80401CA5
:100D2000CD1A8542EADC5B1C8B42E5DB70BD2DE908
:100D3000FF4107460C464FF0000821463846FFF7B2
:100D4000D7FF002505E007EB450040882DF815008A
:100D50006D1CA01EA842F6DC002605E03DF816003A
:100D600040441FFA80F8761CA01EB042F6DC98FBC7
:100D7000F0F080B204B0BDE8F081F0B504460B4657
:100D80000020002100BF1AE0002115E004EB01164D
:100D900036F8106040F6E44706FB07F5EE1705EB62
:100DA0001656C6F30F36C0EB0017DFF808C10CEB80
:100DB000470727F81160491C9942E7DB401C904225
:100DC000E2DBF0BD30B50246002000BF48E023233F
:100DD000394C04F8303032F810304FF47A7493FB09
:100DE000F4F33033344C04EBC00463702E23324CE4
:100DF00004EBC004A37032F81030642493FBF4F3C6
:100E00000A2493FBF4F504FB153330332A4C04EB2E
:100E1000C004E37032F81030642493FBF4F504FB53
:100E200015330A2493FBF4F33033234C04EBC00452
:100E3000237132F810300A2493FBF4F504FB1533C8
:100E400030331D4C04EBC004637125231A4C04EBB2
:100E5000C004A3710D23184C04EBC004E371401CC3
:100E60008842B4DB30BD10B50121144800F0E5FC28
:100E700010BD10B50021114800F0DFFC10BD10B509
:100E800008220A210E48FFF778FF00240BE0C4EB8C
:100E90000411084A02EB41000A21FFF748FF094903
:100EA00021F81400641C082CF1DB08210548FFF729
:100EB00089FF10BD280100204800002000240140C7
:100EC000880000203800002010B540F22551294844
:100ED00001F078FDC8B1274801F0F4FCC1B2264802
:100EE00002880088401C244B1880244881541846EE
:100EF0000088401E2149085C252803D01846008838
:100F00000F2802DB00201C49088040F225511948B7
:100F100001F082FD10BD10B540F22551184801F0D6
:100F200051FD40B16120FFF770FC6220FFF76DFCBE
:100F30000D20FFF76AFC40F22551114801F06CFDCD
:100F400010BD10B540F225510E4801F03BFD58B1DF
:100F50000C4801F0B7FC0C49087008460078FFF710
:100F600001FC00200849087040F22551054801F0B5
:100F700053FD10BD0038014002000020180200207F
:100F80000044004000480040000000202DE9F041EE
:100F900000264FF40051FC4801F0C7F807464FF413
:100FA0008041F94801F0C1F805464FF40041F64888
:100FB00001F0BBF804466D00A40047EA0500204399
:100FC00006433046BDE8F08170B504460025012C8B
:100FD00004D0022C09D0032C14D10DE04FF4804131
:100FE000E94801F0A2F805460DE04FF40041E6485B
:100FF00001F09BF8054606E00421E44801F095F86D
:10100000054600E000BF00BF284670BD10B54FF494
:101010008041DD4801F0A5F84FF40041DA4801F0C5
:10102000A0F80421D94801F09CF810BD70B5054620
:10103000012404EA050020B1E103D54801F08FF84E
:1010400004E04FF40041D24801F08BF84FF6FF70F6
:1010500000EA440404EA050020B10121CD4801F072
:101060007EF803E00121CB4801F07BF84FF6FF70DA
:1010700000EA440404EA050020B10221C54801F059
:101080006EF803E00221C34801F06BF84FF6FF70E1
:1010900000EA440404EA050020B10421BD4801F03F
:1010A0005EF803E00421BB4801F05BF84FF6FF70E7
:1010B00000EA440404EA050020B10821B54801F023
:1010C0004EF803E00821B34801F04BF84FF6FF70EB
:1010D00000EA440404EA050020B11021AD4801F003
:1010E0003EF803E01021AB4801F03BF84FF6FF70EB
:1010F00000EA440404EA050020B12021A54801F0DB
:101100002EF803E02021A34801F02BF84FF6FF70E2
:1011100000EA440404EA050020B140219D4801F0A2
:101120001EF803E040219B4801F01BF84FF6FF70CA
:1011300000EA440404EA050020B18021954801F04A
:101140000EF803E08021934801F00BF84FF6FF7092
:1011500000EA440404EA050028B14FF480718D4888
:1011600000F0FDFF04E04FF480718A4800F0F9FFC1
:101170004FF6FF7000EA440404EA050028B14FF47A
:101180000071844800F0EBFF04E04FF400718148E7
:1011900000F0E7FF4FF6FF7000EA440404EA0500A0
:1011A00028B14FF480617B4800F0D9FF04E04FF490
:1011B0008061784800F0D5FF4FF6FF7000EA4404E4
:1011C00004EA050028B14FF40061724800F0C7FF3F
:1011D00004E04FF400616F4800F0C3FF4FF6FF706A
:1011E00000EA440404EA050028B14FF4805169483C
:1011F00000F0B5FF04E04FF48051664800F0B1FF05
:101200004FF6FF7000EA440404EA050028B14FF4E9
:101210000051604800F0A3FF04E04FF400515D4826
:1012200000F09FFF70BD70B505460C46102D76D2BC
:10123000DFE805F0CC0815212D3945515D6976832D
:10124000909DB2BF24B94FF40041514800F089FF8E
:10125000012C03D1E1034E4800F081FFB7E01CB937
:1012600001214C4800F07DFF012C03D101214948A8
:1012700000F075FFABE01CB90221464800F071FF99
:10128000012C03D10221434800F069FF9FE01CB903
:101290000421404800F065FF012C03D104213D48A2
:1012A00000F05DFF93E01CB908213A4800F059FFB7
:1012B000012C03D10821374800F051FF87E01CB909
:1012C0001021344800F04DFF012C03D1102131488A
:1012D00000F045FF7BE01CB920212E4800F041FFC3
:1012E000012C03D120212B4800F039FF6FE01CB9FD
:1012F0004021284800F035FF012C03D1402125482A
:1013000000F02DFF63E01CB98021224800F029FF86
:10131000012C03D180211F4800F021FF57E055E048
:1013200024B94FF480711B4800F01BFF012C03D13E
:101330002102184800F013FF49E024B94FF400716E
:10134000144800F00EFF012C03D16102114800F097
:1013500006FF3CE024B94FF480610E4800F001FF25
:10136000012C03D1A1020B4800F0F9FE2FE024B9B3
:101370004FF40061074800F0F4FE012C03D1E102B4
:10138000044800F0ECFE22E0000801400014014097
:10139000000C01400010014024B94FF480511C485A
:1013A00000F0DFFE012C03D12103194800F0D7FE25
:1013B0000DE024B94FF40051154800F0D2FE012C85
:1013C00003D16103124800F0CAFE00E000BF00BF75
:1013D00070BD10B5002423200E4908702520087127
:1013E00000BF04E030210B4A601C1154641C032C24
:1013F000F8DB002408E0601CFFF7E6FD3030C1B2E6
:10140000044A601C1154641C032CF4DB014810BD19
:1014100000100140080000200948804709480047A3
:10142000FEE7FEE7FEE7FEE7FEE7FEE7FEE7FEE794
:10143000FEE7FEE704480549054A064B70470000F1
:101440003715000831010008980200209808002094
:1014500098040020980400200CB500200190009012
:101460006C48006840F480306A49086000BF6948F1
:10147000006800F4003000900198401C0190009832
:1014800018B90198B0F5A06FF1D16248006800F476
:10149000003010B10120009001E000200090009881
:1014A000012843D15C48006840F010005A490860A8
:1014B0000846006820F0030008600846006840F015
:1014C0000200086053484068524948600846406836
:1014D00048600846406840F48060486008464068BC
:1014E00020F47C1048600846406840F4E8104860EA
:1014F0000846006840F08070086000BF45480068FA
:1015000000F000700028F9D04248406820F0030045
:10151000404948600846406840F00200486000BF0B
:101520003C48406800F00C000828F9D10CBD10B50B
:10153000FFF792FF10BD10B53648006840F001007B
:1015400034490860084640683449084031494860D9
:1015500008460068324908402E490860084600687D
:1015600020F4802008600846406820F4FE004860AF
:101570004FF41F008860FFF7DAFF4FF00060294941
:10158000086010BD10B5002100200022214B5B68CF
:1015900003F00C0121B1042906D0082928D107E065
:1015A000214B224C236027E01F4B204C236023E07B
:1015B000184B5B6803F47010164B5B6803F48032C1
:1015C000022303EB904022B9194B4343174C23608D
:1015D0000DE0104B5B6803F4003323B1144B43431D
:1015E000124C236003E0104B4343104C236003E094
:1015F0000D4B0E4C236000BF00BF064B5B68C3F36E
:1016000003130C4CE15C094B1B68CB40074C236077
:1016100010BD000000100240002002400000FFF852
:10162000FFFFF6FE08ED00E000127A001000002037
:1016300000093D001400002031490143314A116086
:10164000704770B5002100230F22C47804B32D4CDD
:10165000246804F4E064C4F5E064210AC1F10403E1
:10166000CA40447804FA03F1847814402143090104
:10167000254C0678A155047804F01F050124AC40E0
:1016800005786D11AD0005F1E025C5F8004109E0D0
:10169000047804F01F050124AC401C4D0678761137
:1016A00045F8264070BD1A4A0A400243154B1B1FDD
:1016B0001A60704739B1134A121D12680243114B68
:1016C0001B1D1A6006E00F4A121D126882430D4B63
:1016D0001B1D1A607047042808D14FF0E0210969EA
:1016E00041F004014FF0E022116107E04FF0E021EA
:1016F000096921F004014FF0E022116170470000F8
:101700000000FA050CED00E000E400E080E100E0FC
:1017100080FFFF1F10B50446FA48844208D101211A
:10172000401500F045FF0021601500F041FF17E073
:10173000F548844208D10121001500F039FF00214D
:10174000201500F035FF0BE0F048844208D101215C
:10175000C80300F02DFF00214FF4004000F028FFE7
:1017600010BD30B50246002000235068E84C2040F0
:101770000D790C6844EA0524204350609068E54CDC
:101780002040D1E902542C434D7944EA45042043DA
:101790009060D06A20F470000C7C641EE4B2234395
:1017A00040EA0350D06230BD0021016001714171F7
:1017B0008160C16001210174704721B1826842F0EB
:1017C0000102826003E0826822F0010282607047B9
:1017D00021B1826842F48072826003E0826822F460
:1017E00080728260704710B50023CBB21AB1446892
:1017F0001C43446002E044689C43446010BD81681F
:1018000041F0080181607047014600208A6802F0BB
:1018100008020AB1012000E000207047816841F011
:10182000040181607047014600208A6802F00402CA
:101830000AB1012000E00020704721B1826842F423
:10184000A002826003E0826822F4A00282607047F6
:10185000014600208A6802F480020AB1012000E0FB
:101860000020704710B50A4600210023416821F48A
:101870006041531E41EA4331416010BD21B14268CD
:1018800042F40062426003E0426822F40062426077
:101890007047F0B504460D4600200021092D11DDEA
:1018A000E068A5F10A0606EB4607072606FA07F1E7
:1018B0008843A5F10A0606EB460603FA06F108433B
:1018C000E0600CE0206905EB4507072606FA07F102
:1018D000884305EB450603FA06F108432061072A11
:1018E0000FDA606B561E06EB86071F2606FA07F115
:1018F0008843561E06EB860605FA06F10843606328
:1019000022E00D2A0FDA206BD61F06EB86071F2672
:1019100006FA07F18843D61F06EB860605FA06F19C
:101920000843206310E0E06AA2F10D0606EB86078B
:101930001F2606FA07F18843A2F10D0606EB86067C
:1019400005FA06F10843E062F0BD21B1826842F475
:101950008012826003E0826822F480128260704705
:101960000146C86C80B2704766484C3000687047CA
:1019700021B1426842F48062426003E0426822F48E
:1019800080624260704721B1426842F480524260F6
:1019900003E0426822F48052426070470A46002108
:1019A000816821F4E04111438160704721B1826870
:1019B00042F40042826003E0826822F400428260C6
:1019C000704721B1826842F40212826003E08268AB
:1019D00022F4021282607047014600208A6802F4F5
:1019E00000120AB1012000E000207047F0B5044663
:1019F0001546002000220026092911DDE068A1F12A
:101A00000A0707EB470C072707FA0CF29043A1F1EE
:101A10000A0707EB470703FA07F21043E0600CE000
:101A2000206901EB410C072707FA0CF2904301EB08
:101A3000410703FA07F210432061A06BC0F301567F
:101A4000EF1C06F1010CA7EB0C0707EB870C1F2717
:101A500007FA0CF29043EF1C06F1010CA7EB0C0700
:101A600007EB870701FA07F21043A063F0BD10B53A
:101A70000A4600210023816B21F44011531E41EAE4
:101A80000351816310BD08B5002300930090009BB3
:101A90000B440093009B1A6008BD08B50246002065
:101AA0000090009201F12800009B184400900098DB
:101AB000006880B208BD0A4600214168164B1940F3
:101AC0001143416070474162826270470A460021BB
:101AD000416821F01F0111434160704740B109493D
:101AE0000831096841F40001064A0832116007E034
:101AF00004490831096821F40001024A08321160E2
:101B0000704700000024014000280140003C0140D3
:101B1000FFFEF0FFFDF7F1FFFFFD3FFF0246002053
:101B200013680B400BB1012000E000207047CA434E
:101B30000260704770B502460020002300240B129B
:101B40005568CEB205EA060415681D4015B10CB102
:101B5000012000E0002070BD00220A12D343036080
:101B60007047000010B50121480700F02EFD00214C
:101B70004FF0005000F029FD10BD30B500220023C9
:101B80005A4C226840F6FE748440A243D1E90045D5
:101B90002C438D682C43CD6844EA050303FA00F416
:101BA0002243524C226030BD0021016041608160BF
:101BB000C160704739B14D4A1268012383401A430E
:101BC0004A4B1A6006E0494A1268012383409A434F
:101BD000464B1A60704741B1444A12684FF4805333
:101BE00083401A43414B1A6007E0404A12684FF4A1
:101BF000805383409A433D4B1A60704710B551B1F2
:101C00003A4A121D126804090123A3401A43374BB4
:101C10001B1D1A6009E0354A121D126804090123D0
:101C2000A3409A43314B1B1D1A6010BD40B12F4990
:101C3000091D096841F003012C4A121D116007E0DB
:101C40002A49091D096821F00301284A121D116063
:101C5000704710B53AB1254B1B6801FA00F42343D5
:101C6000224C236006E0214B1B6801FA00F4A343D9
:101C70001E4C236010BD08B5002200921B4A009242
:101C800000F10802009B1A440092009A116008BDFE
:101C900008B500220092154A009200F11402009B40
:101CA0001A440092009A116008BD30B50024002348
:101CB000082802D142EA012401E042EA01440B4B28
:101CC00000F120052B441C6030BD08B50146002002
:101CD0000090064800902C2000EB9100009A1044E0
:101CE00000900098006880B208BD000000740040B9
:101CF00001684FF6FE7211400160002101604160F1
:101D00008160C1608D49884208D18C490839496891
:101D100041F00F01894A083A51608AE0874914313D
:101D2000884208D185490839496841F0F001834A61
:101D3000083A51607DE081492831884208D17F49C5
:101D40000839496841F470617C4A083A516070E092
:101D50007A493C31884208D178490839496841F4C8
:101D60007041764A083A516063E0744950318842C4
:101D700008D172490839496841F470216F4A083A1C
:101D8000516056E06D496431884208D16B49083989
:101D9000496841F47001694A083A516049E067496D
:101DA0007831884208D165490839496841F0706145
:101DB000624A083A51603CE06149884206D1011FFD
:101DC000096841F00F01021F116032E05C491431D3
:101DD000884208D15A49091F096841F0F001584A60
:101DE000121F116025E056492831884208D1544914
:101DF000091F096841F47061514A121F116018E00F
:101E00004F493C31884208D14D49091F096841F4C6
:101E100070414B4A121F11600BE049495031884212
:101E200007D14749091F096841F47021444A121F2C
:101E30001160704710B50022026847F6F0739A43AC
:101E40000C6A8B6823430C6923434C6923438C69D8
:101E50002343CC6923434C6A23438C6A23431A43AC
:101E60000260CB6843600B6883604B68C36010BD41
:101E70000021016041608160C16001614161816157
:101E8000C161016241628162704721B1026842F022
:101E90000102026004E002684FF6FE731A4002601D
:101EA00070471AB103680B43036002E003688B4379
:101EB00003607047416070470146486880B27047D0
:101EC00001460020002201F080531BB11C4B083B4F
:101ED0001A6802E0194B083B1A6802EA01030BB1C9
:101EE000012000E00020704700F0805119B1144932
:101EF000091F086002E0114908394860704701462F
:101F00000020002201F080531BB10D4B083B1A68E2
:101F100002E00A4B083B1A6802EA01030BB10120F8
:101F200000E00020704700F0805119B10449091FFA
:101F3000086002E001490839486070470800024023
:101F40000804024010B50446CC48844208D101215F
:101F5000042000F02DFB0021042000F029FB46E0C6
:101F6000C748844208D10121082000F021FB00214C
:101F7000082000F01DFB3AE0C248844208D101214C
:101F8000102000F015FB0021102000F011FB2EE0C6
:101F9000BD48844208D10121202000F009FB002126
:101FA000202000F005FB22E0B848844208D101213E
:101FB000402000F0FDFA0021402000F0F9FA16E080
:101FC000B348844208D10121802000F0F1FA0021B9
:101FD000802000F0EDFA0AE0AE48844207D10121EA
:101FE000801500F0E5FA0021A01500F0E1FA10BD1F
:101FF00010B50121084600F0DBFA0021012000F0B5
:10200000D7FA10BD2DE9F041024600250026002038
:1020100000230024002791F803C00CF00F0591F86D
:1020200003C00CF0100CBCF1000F03D091F802C0FB
:102030004CEA050591F800C0BCF1000F31D01468DE
:1020400000202BE04FF0010C0CFA00F3B1F800C0B7
:102050000CEA03069E4220D183004FF00F0C0CFACD
:1020600003F7BC4305FA03FC4CEA040491F803C0EF
:10207000BCF1280F06D14FF0010C0CFA00FCC2F89D
:1020800014C00AE091F803C0BCF1480F05D14FF02D
:10209000010C0CFA00FCC2F810C0401C0828D1D377
:1020A0001460B1F800C0BCF1FF0F34DD54680020AB
:1020B0002EE000F1080C4FF0010808FA0CF3B1F81B
:1020C00000C00CEA03069E4221D183004FF00F0CA2
:1020D0000CFA03F7BC4305FA03FC4CEA040491F83C
:1020E00003C0BCF1280F05D100F1080C08FA0CF868
:1020F000C2F8148091F803C0BCF1480F07D100F179
:10210000080C4FF0010808FA0CF8C2F81080401CC7
:102110000828CED35460BDE8F0814FF6FF710180EE
:10212000022181700421C17070470246002093682B
:102130000B400BB1012000E0002070470146886889
:1021400080B2704702460020D3680B400BB10120DB
:1021500000E0002070470146C86880B27047016106
:102160007047416170470AB1016100E04161704709
:10217000C16070474FF480320A438261816182619D
:1021800082698269704702460020434B18684FF607
:102190008073184040EA021008433F4B18607047B4
:1021A0003E49C8617047F0B50A460023002400216B
:1021B000002500F00046B6F1004F02D1364EF1691D
:1021C00001E0354E7168C0F3034583B200F4401658
:1021D000B6F5401F08D121F070612F4E766826F0C9
:1021E00070662D4F7E6012E000F48016B6F5801FF9
:1021F00006D1032606FA05F4A14341F0706106E01A
:10220000460D360103FA06F6B14341F0706122B182
:10221000460D360103FA06F6314300F00046B6F1EA
:10222000004F02D11C4EF16101E01B4E7160F0BD08
:1022300030B500228B071C0F0F2303FA04F2164B54
:1022400008338C1053F824309343134C08348D100A
:1022500044F8253023468C1053F824308C07240F83
:1022600000FA04F423430C4C08348D1044F8253054
:1022700030BD0A49DC3108607047000000080140A9
:10228000000C014000100140001401400018014002
:10229000001C0140002001400000014000002042DD
:1022A000DF48006840F00100DD49086008464068EA
:1022B000DC490840DA49486008460068DA490840C5
:1022C000D74908600846006820F480200860084666
:1022D000406820F4FE0048604FF41F00886070479B
:1022E000CF49096821F48031CD4A1160114609684F
:1022F00021F480211160B0F5803F03D0B0F5802F2C
:102300000ED106E0C649096841F48031C44A116023
:1023100007E0C349096841F4A021C14A116000E007
:1023200000BF00BF704710B5014600220023002007
:102330004A11012A02D1BA4C236806E0022A02D1CE
:10234000B74C236A01E0B64C636A01F01F02012416
:1023500094401C400CB1012000E0002010BD38B5B5
:10236000002000900024002500BF3120FFF7DBFF94
:1023700005460098401C00900098B0F5A06F01D071
:10238000002DF2D03120FFF7CEFF08B1012400E08C
:102390000024204638BD01460020A14A106820F0E4
:1023A000F80040EAC10010607047A049086070471B
:1023B000024600209A4B586820F47C1042EA010340
:1023C0001843974B58607047984908667047014614
:1023D0000020934A506820F0030008435060704783
:1023E0008F48406800F00C007047014600208C4A7E
:1023F000506820F0F000084350607047014600200C
:10240000874A506820F4E0600843506070470146F6
:102410000020834A506820F4605040EAC1005060B8
:10242000704729B17E4A527A02437D4B5A7204E0CA
:102430007B4A527A82437A4B5A7270477B49D83131
:102440000860704701460020754A506820F44040FB
:102450000843506070470021714A20321170704A61
:1024600082F82010012802D004280AD104E00121BA
:102470006B4A2032117005E00521694A2032117043
:1024800000E000BF00BF70476949086070476449B9
:10249000096A0143624A116270476549443908601C
:1024A000704730B500210022002400235C4D6D6888
:1024B00005F00C0121B1042905D0082923D105E03C
:1024C0005C4D056022E05B4D05601FE0544D6D687A
:1024D00005F47012524D6D6805F48034022505EB49
:1024E00092421CB9544D554305600BE04C4D6D684C
:1024F00005F400351DB1504D5543056002E04D4DCA
:102500005543056002E04B4D056000BF00BF444DE0
:102510006D6805F0F0010909484D6B5C0568DD4008
:1025200045603F4D6D6805F4E061090A434D6B5C01
:102530004568DD4085603A4D6D6805F46051C90A13
:102540003E4D6B5C4568DD40C560354D6D6805F4FA
:102550004041890B3A4D6B5CC568B5FBF3F50561ED
:1025600030BD29B12E4A526902432D4B5A6104E015
:102570002B4A526982432A4B5A61704729B1284A33
:1025800092690243264B9A6104E0254A926982438C
:10259000234B9A61704729B1214AD2690243204BEB
:1025A000DA6104E01E4AD26982431D4BDA6170474A
:1025B00029B11B4AD2680243194BDA6004E0184A79
:1025C000D2688243164BDA60704729B1144A126907
:1025D0000243134B1A6104E0114A12698243104B03
:1025E0001A61704712494039086070470F49C86442
:1025F00070470B49C87170470948406A40F08070C5
:1026000007494862704701460020054A92680A401F
:102610000AB1012000E0002070470149887270472C
:10262000001002400000FFF8FFFFF6FE00004242EB
:102630008004424200127A0000093D00240000207C
:102640003400002010B50446FB48844209D1012122
:102650008803FFF7ADFF00214FF48040FFF7A8FF8C
:1026600032E0F648844209D101214804FFF7ADFF6A
:1026700000214FF40030FFF7A8FF25E0F048844226
:1026800009D101218804FFF7A0FF00214FF4802029
:10269000FFF79BFF18E0EB48844209D10121C804F1
:1026A000FFF793FF00214FF40020FFF78EFF0BE0B0
:1026B000E548844208D101210805FFF786FF002183
:1026C0004FF48010FFF781FF10BD2DE9F04786B071
:1026D00005460E460024A24600BFA1460027B08949
:1026E00000B100BF2F462C8A4CF6FF700440F088E2
:1026F00004432C82AC894EF6F3100440B088318933
:102700000843718908430443AC81AC8A4FF6FF400B
:102710000440B0890443AC8201A8FFF7C2FEC6485A
:10272000874202D1DDF810A001E0DDF80CA0A889F5
:1027300000F4004040B10AEBCA0000EB0A10316817
:102740004900B0FBF1F807E00AEBCA0000EB0A1001
:1027500031688900B0FBF1F86420B8FBF0F00401A7
:102760002009642101FB1089A88900F4004040B1D0
:10277000322000EBC900B0FBF1F000F00700044389
:1027800008E0322000EB09106421B0FBF1F000F00A
:102790000F0004432C8106B0BDE8F0874FF41651BA
:1027A000016000218180C18001810C2141810021D3
:1027B0008181704710B502460020108A4FF2FF0356
:1027C00018400B884C8823438C882343CC882343B0
:1027D0001843108210BD0021018041808180C1809A
:1027E000704721B1828942F40052828104E08289DB
:1027F0004DF6FF731A4082817047F0B503460024FE
:1028000000260025002040F66A17B94200D100BF1B
:102810001846C1F3421401F01F06012707FA06F516
:10282000012C01D10C3004E0022C01D1103000E069
:1028300014301AB107682F43076002E00768AF43FE
:102840000760F0BD1AB1838A0B43838202E0838A5A
:102850008B4383827047028A4FF6F0731A400282DC
:10286000028A0A430282704782894FF2FF731A403C
:10287000828182890A438281704721B1828942F034
:102880000202828104E082894FF6FD731A40828140
:102890007047028A4FF6DF731A400282028A0A43A7
:1028A0000282704721B1028A42F48042028204E02F
:1028B000028A4BF6FF731A4002827047C1F3080286
:1028C0008280704701468888C0F30800704781897C
:1028D00041F0010181817047028BD2B20283028BE9
:1028E00042EA012202837047028B02F47F42028394
:1028F000028B0A430283704721B1828A42F0200290
:10290000828204E0828A4FF6DF731A408282704727
:1029100021B1828A42F01002828204E0828A4FF65C
:10292000EF731A408282704721B1828A42F0080216
:10293000828204E0828A4FF6F7731A4082827047DF
:1029400021B1828942F40042828103E08289C2F38C
:102950000E028281704721B1828A42F40062828233
:1029600004E0828A4FF2FF731A4082827047828AA3
:102970004FF6FB731A408282828A0A438282704732
:1029800021B1828A42F00202828204E0828A4FF6FA
:10299000FD731A408282704702460020B1F5007F25
:1029A00000D100BF13880B400BB1012000E00020D4
:1029B000704701F40072B2F5007F00D100BFCA4336
:1029C0000280704770B502460024002300250020D5
:1029D00040F66A16B14200D100BFC1F3421501F0C2
:1029E0001F03012606FA03F3012D02D19689334015
:1029F00006E0022D02D1168A334001E0968A334068
:102A00000C12012606FA04F41688344013B10CB1F6
:102A1000012000E0002070BD10B50022002340F628
:102A20006A14A14200D100BF0A1201249440A3B24B
:102A3000DC43048010BD0000003801400044004029
:102A400000480040004C0040005000407047704774
:102A50007047754600F028F8AE46050069465346B3
:102A600020F00700854618B020B5FEF7E3FCBDE86E
:102A700020404FF000064FF000074FF000084FF0E5
:102A8000000B21F00701AC46ACE8C009ACE8C00976
:102A9000ACE8C009ACE8C0098D4670470446AFF306
:102AA00000802046FDF78BFB00487047380200206D
:102AB00001491820ABBEFEE7260002007047000067
:102AC0002DE9C04130B4DFF8A0C23CEA111418BFB0
:102AD0003CEA131400F0EC8081EA03051CEA1114AF
:102AE00044EAD57418BF1CEA131500F0C780A4EBA4
:102AF00005044FF0004545EAC12145EAC32341EAF8
:102B0000505143EA525304F17F74994204F5003462
:102B10004FEAC0204FEAC22208BF904200F09C80DA
:102B20004FEA13650FF24016765D4FEA134506FB38
:102B300005F7C7F1807706FB07F74FEAD737A7FB02
:102B400003687642C8F58038A7FB06CE38BFA8F1E7
:102B5000010807FB08E64FF0000EA6FB028CE6FB1F
:102B600003CEDCF1000CCEF1004E38BFAEF1010E09
:102B7000A6FB0C584FF000074FF00005E6FB0E8750
:102B8000A1FB08C6A0FB07CE16EB0E0645F100051B
:102B9000E1FB076515F1E04E7EBFA4F580345FEAE6
:102BA00046066D4116F1800745F100054FEA1727EB
:102BB0004FEA066647EA0567A6F1DE46B6F1805F92
:102BC0004FEA15251FD9384624F0010C05EBC471D6
:102BD000BCF1FE6F01EB0C1102D8F0BCBDE8008126
:102BE00024425CBF01F5801E9EEAC47F02D4F0BC83
:102BF000BDE80081244238D4F0BCA1F1C041BDE859
:102C0000004100F0EDB94FEAD22242EA43524FEAC6
:102C1000D323A7FB02864FEAD02040EA415007FBAE
:102C200003661EEA0E0F4FEAD12105FB026658BF6C
:102C3000A6EB0056B6EB00564FEA520E4EEAC37EA4
:102C400018EB0E0E56EB530EBDD518EB02085E4185
:102C50007F1C55F10005B6E74FF480154FF00007D3
:102C60004FF000064FF00008ADE7F0BC4FF0000059
:102C700001F1C04101F00041BDE8008111EA0C1FE3
:102C80000CEA131500D00CE013EA0C1F00F02580AD
:102C90004FF00000F0BC81EA030101F00041BDE803
:102CA0000081F0BCBDE8004181EA030100F098B961
:102CB000F0BCBDE8004170B500F044F9097EFC3E6F
:102CC00000F007B881EA03014FF0000001F0004175
:102CD000704781EA030100F083B9F0BCBDE8004110
:102CE0004FF0000021497047FFFDFBF9F7F5F4F2C2
:102CF000F0EEEDEBE9E8E6E4E3E1E0DEDDDBDAD897
:102D0000D7D5D4D3D1D0CFCDCCCBCAC8C7C6C5C4F4
:102D1000C2C1C0BFBEBDBCBBBAB9B8B7B6B5B4B30B
:102D2000B2B1B0AFAEADACABAAA9A8A8A7A6A5A4F6
:102D3000A3A3A2A1A09F9F9E9D9C9C9B9A999998BA
:102D40009797969595949393929191908F8F8E8E5D
:102D50008D8C8C8B8B8A89898888878786858584EA
:102D600084838382828181800000FF070000F87FD6
:102D70004FEA1153A3F58063D3F11E03A8BFD3F12B
:102D8000200C08DB4FF0004242EAC12252EA5052C6
:102D900032FA03F0704709420BD4102BC4BF002055
:102DA000704703F5787CBCF1FF3F05D04FF0FF3052
:102DB00070474FF00000704770B500F0C3F800BFD7
:102DC0004992248000207047F0E7B0FA80F310FAAF
:102DD00003F10AD0C3F11D0303F580634FEA4150AC
:102DE0004FEA035202EBD12170474FF000007047C9
:102DF000DFF848C170B51CEA111E1EBF1CEA13158E
:102E00009EEA0C0F95EA0C0F00F06F8081EA030434
:102E100023EA4C134EEAD47E21EA4C1141F480118E
:102E200043F48013AE44A1FB024CA0FB0365AEF15A
:102E30007F7E361955EB0C05A1FB034C4CF10003CA
:102E4000A0FB021C16EB0C06654153F1000309427E
:102E500018BF46F0010613F4007F0BD14FEA03318F
:102E60004FEA0530340341EA155140EA16506FF03D
:102E700003020AE04FEAC3214FEAC520F40241EA07
:102E8000555140EA56506FF0020202EB2E4201EB20
:102E9000025585EACE710AD05FEA440C18BF24F0CF
:102EA000004450F1000041F1000120EAD47040F2EA
:102EB000FE7C624500D270BDA84214BF4FF0804432
:102EC0004FF04044002E08BF0024BEF1806FA8BF21
:102ED000A1F1C041BDE8704080F282804FF0000057
:102EE00001F1C04101F0004170479EEA0C0F0CEA6D
:102EF000131518BF95EA0C0F06D04FF0000081EAB9
:102F0000030E0EF0004170BD00F01CF88900013E78
:102F100000F007B800F009B84FEA430C5FEA5C5CC8
:102F200008D081EA030100F05BB84FEA410C5FEA88
:102F30005C5CF6D14FF00000014970470000FF07CC
:102F40000000F87F0EF1020E2EF0030E5EF8046B07
:102F5000364205D4012A43EB030515F5001F12D8AC
:102F6000012841EB010C1CF5001F0CD80ED14FEAD3
:102F7000D17C15F5001F0CEB4C0C0CF1020C08BFBA
:102F80004CEBD37C04E04FF0080C01E04FEAD37C1B
:102F90000CEB4C0526FA05F606F00706B6F1040C14
:102FA00006D20EEB860CBDE870404CF0010C604779
:102FB000DFE80CF0090B02024FF000414FF0000077
:102FC000A1F5002170BD19461046012851EB0104FE
:102FD00018BFD4F5001484BF002001F0004170BD7B
:102FE0000808A0F500114FEA310170470C300008C5
:102FF00000000020380000006C0100084430000888
:10300000380000206008000088010008000000006F
:1030100000000000000000000000000000A24A04C0
:103020000000000000000000010203040607080978
:10303000000000000102030401020304060708095E
:043040000204060878
:0400000508001419C2
:00000001FF
